{
  "contractName": "VotingSystem",
  "abi": [
    {
      "constant": false,
      "inputs": [
        {
          "internalType": "uint256",
          "name": "noOfC",
          "type": "uint256"
        }
      ],
      "name": "init",
      "outputs": [
        {
          "internalType": "bool",
          "name": "",
          "type": "bool"
        }
      ],
      "payable": false,
      "stateMutability": "nonpayable",
      "type": "function"
    },
    {
      "constant": false,
      "inputs": [
        {
          "internalType": "string",
          "name": "n",
          "type": "string"
        },
        {
          "internalType": "string",
          "name": "pass",
          "type": "string"
        },
        {
          "internalType": "string",
          "name": "pk",
          "type": "string"
        }
      ],
      "name": "setDetails",
      "outputs": [
        {
          "internalType": "uint256",
          "name": "vID",
          "type": "uint256"
        }
      ],
      "payable": false,
      "stateMutability": "nonpayable",
      "type": "function"
    },
    {
      "constant": false,
      "inputs": [
        {
          "internalType": "uint256",
          "name": "voterIDNum",
          "type": "uint256"
        },
        {
          "internalType": "uint256",
          "name": "to",
          "type": "uint256"
        }
      ],
      "name": "castVote",
      "outputs": [
        {
          "internalType": "bool",
          "name": "ret",
          "type": "bool"
        }
      ],
      "payable": false,
      "stateMutability": "nonpayable",
      "type": "function"
    },
    {
      "constant": true,
      "inputs": [
        {
          "internalType": "uint256",
          "name": "voterIDNum",
          "type": "uint256"
        }
      ],
      "name": "getDetails",
      "outputs": [
        {
          "components": [
            {
              "internalType": "string",
              "name": "name",
              "type": "string"
            },
            {
              "internalType": "string",
              "name": "publicKey",
              "type": "string"
            },
            {
              "internalType": "string",
              "name": "password",
              "type": "string"
            },
            {
              "internalType": "uint256",
              "name": "voteTo",
              "type": "uint256"
            }
          ],
          "internalType": "struct VotingSystem.voter",
          "name": "v",
          "type": "tuple"
        }
      ],
      "payable": false,
      "stateMutability": "view",
      "type": "function"
    },
    {
      "constant": true,
      "inputs": [],
      "name": "getCount",
      "outputs": [
        {
          "internalType": "uint256[]",
          "name": "vB",
          "type": "uint256[]"
        }
      ],
      "payable": false,
      "stateMutability": "view",
      "type": "function"
    }
  ],
  "bytecode": "0x6080604052600060015534801561001557600080fd5b50610add806100256000396000f3fe608060405234801561001057600080fd5b50600436106100575760003560e01c80632c0a3f891461005c578063a87d942c1461008c578063b7b0422d146100aa578063b93a89f7146100da578063f0da70871461010a575b600080fd5b61007660048036036100719190810190610769565b61013a565b6040516100839190610914565b60405180910390f35b6100946101a8565b6040516100a191906108f2565b60405180910390f35b6100c460048036036100bf9190810190610740565b610200565b6040516100d19190610914565b60405180910390f35b6100f460048036036100ef9190810190610740565b610260565b604051610101919061092f565b60405180910390f35b610124600480360361011f91908101906106a9565b61047d565b6040516101319190610951565b60405180910390f35b6000808211801561014d57506002548211155b1561019d578160046000858152602001908152602001600020600301819055506000828154811061017a57fe5b9060005260206000200160008154809291906001019190505550600190506101a2565b600090505b92915050565b606060008054806020026020016040519081016040528092919081815260200182805480156101f657602002820191906000526020600020905b8154815260200190600101908083116101e2575b5050505050905090565b6000816040519080825280602002602001820160405280156102315781602001602082028038833980820191505090505b5060009080519060200190610247929190610526565b5081600281905550606460018190555060019050919050565b610268610573565b60046000838152602001908152602001600020604051806080016040529081600082018054600181600116156101000203166002900480601f01602080910402602001604051908101604052809291908181526020018280546001816001161561010002031660029004801561031f5780601f106102f45761010080835404028352916020019161031f565b820191906000526020600020905b81548152906001019060200180831161030257829003601f168201915b50505050508152602001600182018054600181600116156101000203166002900480601f0160208091040260200160405190810160405280929190818152602001828054600181600116156101000203166002900480156103c15780601f10610396576101008083540402835291602001916103c1565b820191906000526020600020905b8154815290600101906020018083116103a457829003601f168201915b50505050508152602001600282018054600181600116156101000203166002900480601f0160208091040260200160405190810160405280929190818152602001828054600181600116156101000203166002900480156104635780601f1061043857610100808354040283529160200191610463565b820191906000526020600020905b81548152906001019060200180831161044657829003601f168201915b505050505081526020016003820154815250509050919050565b600060015460038190555060018054016001819055508360046000600354815260200190815260200160002060000190805190602001906104bf92919061059b565b508160046000600354815260200190815260200160002060010190805190602001906104ec92919061059b565b5082600460006003548152602001908152602001600020600201908051906020019061051992919061059b565b5060035490509392505050565b828054828255906000526020600020908101928215610562579160200282015b82811115610561578251825591602001919060010190610546565b5b50905061056f919061061b565b5090565b6040518060800160405280606081526020016060815260200160608152602001600081525090565b828054600181600116156101000203166002900490600052602060002090601f016020900481019282601f106105dc57805160ff191683800117855561060a565b8280016001018555821561060a579182015b828111156106095782518255916020019190600101906105ee565b5b509050610617919061061b565b5090565b61063d91905b80821115610639576000816000905550600101610621565b5090565b90565b600082601f83011261065157600080fd5b813561066461065f82610999565b61096c565b9150808252602083016020830185838301111561068057600080fd5b61068b838284610a30565b50505092915050565b6000813590506106a381610a83565b92915050565b6000806000606084860312156106be57600080fd5b600084013567ffffffffffffffff8111156106d857600080fd5b6106e486828701610640565b935050602084013567ffffffffffffffff81111561070157600080fd5b61070d86828701610640565b925050604084013567ffffffffffffffff81111561072a57600080fd5b61073686828701610640565b9150509250925092565b60006020828403121561075257600080fd5b600061076084828501610694565b91505092915050565b6000806040838503121561077c57600080fd5b600061078a85828601610694565b925050602061079b85828601610694565b9150509250929050565b60006107b183836108d4565b60208301905092915050565b60006107c8826109d5565b6107d281856109f8565b93506107dd836109c5565b8060005b8381101561080e5781516107f588826107a5565b9750610800836109eb565b9250506001810190506107e1565b5085935050505092915050565b61082481610a1a565b82525050565b6000610835826109e0565b61083f8185610a09565b935061084f818560208601610a3f565b61085881610a72565b840191505092915050565b60006080830160008301518482036000860152610880828261082a565b9150506020830151848203602086015261089a828261082a565b915050604083015184820360408601526108b4828261082a565b91505060608301516108c960608601826108d4565b508091505092915050565b6108dd81610a26565b82525050565b6108ec81610a26565b82525050565b6000602082019050818103600083015261090c81846107bd565b905092915050565b6000602082019050610929600083018461081b565b92915050565b600060208201905081810360008301526109498184610863565b905092915050565b600060208201905061096660008301846108e3565b92915050565b6000604051905081810181811067ffffffffffffffff8211171561098f57600080fd5b8060405250919050565b600067ffffffffffffffff8211156109b057600080fd5b601f19601f8301169050602081019050919050565b6000819050602082019050919050565b600081519050919050565b600081519050919050565b6000602082019050919050565b600082825260208201905092915050565b600082825260208201905092915050565b60008115159050919050565b6000819050919050565b82818337600083830152505050565b60005b83811015610a5d578082015181840152602081019050610a42565b83811115610a6c576000848401525b50505050565b6000601f19601f8301169050919050565b610a8c81610a26565b8114610a9757600080fd5b5056fea365627a7a723158203abfb1273de042ce58df8a1ed3b76cf83e92accb26b8dab4d0b14f27cc43b3966c6578706572696d656e74616cf564736f6c63430005100040",
  "source": "pragma solidity >=0.4.25;\npragma experimental ABIEncoderV2;\n\n\ncontract VotingSystem {\n    uint256[] voteBallot;\n    uint256 noOfVoters = 0;\n    uint256 noOfCandidates;\n    uint256 voterID;\n\n    struct voter {\n        string name;\n        string publicKey;\n        string password;\n        uint256 voteTo;\n    }\n\n    function init(uint256 noOfC) public returns (bool) {\n        voteBallot = new uint256[](noOfC);\n        noOfCandidates = noOfC;\n        noOfVoters = 100;\n        return true;\n    }\n\n    mapping(uint256 => voter) voters;\n\n    function setDetails(string memory n, string memory pass, string memory pk)\n        public\n        returns (uint256 vID)\n    {\n        voterID = noOfVoters;\n        noOfVoters = noOfVoters + 1;\n        voters[voterID].name = n;\n        voters[voterID].publicKey = pk;\n        voters[voterID].password = pass;\n        return voterID;\n    }\n\n    function castVote(uint256 voterIDNum, uint256 to)\n        public\n        returns (bool ret)\n    {\n        if (to > 0 && to <= noOfCandidates) {\n            voters[voterIDNum].voteTo = to;\n            voteBallot[to]++;\n            return true;\n        } else {\n            return false;\n        }\n    }\n\n    function getDetails(uint256 voterIDNum)\n        public\n        view\n        returns (voter memory v)\n    {\n        return voters[voterIDNum];\n    }\n\n    function getCount() public view returns (uint256[] memory vB) {\n        return voteBallot;\n    }\n}\n",
  "sourcePath": "/home/badmintonbhivpa/Work/internship/LP3/DVoter/contracts/VotingSystem.sol",
  "compiler": {
    "name": "solc",
    "version": "0.5.16+commit.9c3226ce.Emscripten.clang"
  },
  "schemaVersion": "3.0.23",
  "updatedAt": "2020-03-30T14:01:22.392Z",
  "networkType": "ethereum",
  "devdoc": {
    "methods": {}
  },
  "userdoc": {
    "methods": {}
  }
}